:0200000460009A
:10000000464346420004015600000000010303007D
:1000100000000000000000000000000000000000E0
:1000200000000000000000000000000000000000D0
:1000300000000000000000000000000000000000C0
:1000400000000000010407000000000000000000A4
:10005000000000010000000000000000000000009F
:100060000000000000000000000000000000000090
:100070000000000000000000000000000000000080
:10008000EB04180A063204260000000000000000FD
:100090000000000000000000000000000000000060
:1000A0000000000000000000000000000000000050
:1000B0000000000000000000000000000000000040
:1000C0000000000000000000000000000000000030
:1000D0000000000000000000000000000000000020
:1000E0000000000000000000000000000000000010
:1000F0000000000000000000000000000000000000
:1001000000000000000000000000000000000000EF
:1001100000000000000000000000000000000000DF
:1001200000000000000000000000000000000000CF
:1001300000000000000000000000000000000000BF
:1001400000000000000000000000000000000000AF
:10015000000000000000000000000000000000009F
:10016000000000000000000000000000000000008F
:10017000000000000000000000000000000000007F
:10018000000000000000000000000000000000006F
:10019000000000000000000000000000000000005F
:1001A000000000000000000000000000000000004F
:1001B000000000000000000000000000000000003F
:1001C000000100000010000000000000000000001E
:1001D000000001000000000000000000000000001E
:1001E000000000000000000000000000000000000F
:1001F00000000000000000000000000000000000FF
:10100000D10020410020006000000000301000608E
:1010100020100060001000600000000000000000D0
:10102000000000600000000400000000FFFFFFFF60
:10103000D2041041CC038C04400FC068FFFFFFFFB7
:10104000400FC06CFFFFFFFF400FC070FFFFFFFFAE
:10105000400FC074FFFFFFFF400FC078FFFFFFFF8E
:10106000400FC07CFFFFFFFF400FC080FFFFFFFF6E
:10107000400D803000002001400D8100001D000067
:10108000400FC01400010D40401F801400000000FC
:10109000401F801800000000401F801C000000005E
:1010A000401F802000000000401F8024000000003E
:1010B000401F802800000000401F802C000000001E
:1010C000401F803000000000401F803400000000FE
:1010D000401F803800000000401F803C00000000DE
:1010E000401F804000000000401F804400000000BE
:1010F000401F804800000000401F804C000000009E
:10110000401F805000000000401F8054000000007D
:10111000401F805800000000401F805C000000005D
:10112000401F806000000000401F8064000000003D
:10113000401F806800000000401F806C000000001D
:10114000401F807000000000401F807400000000FD
:10115000401F807800000000401F807C00000000DD
:10116000401F808000000000401F808400000000BD
:10117000401F808800000000401F808C000000009D
:10118000401F809000000000401F8094000000007D
:10119000401F809800000000401F809C000000005D
:1011A000401F80A000000000401F80A4000000003D
:1011B000401F80A800000000401F80AC000000001D
:1011C000401F80B000000010401F8204000110F991
:1011D000401F8208000110F9401F820C000110F925
:1011E000401F8210000110F9401F8214000110F905
:1011F000401F8218000110F9401F821C000110F9E5
:10120000401F8220000110F9401F8224000110F9C4
:10121000401F8228000110F9401F822C000110F9A4
:10122000401F8230000110F9401F8234000110F984
:10123000401F8238000110F9401F823C000110F964
:10124000401F8240000110F9401F8244000110F944
:10125000401F8248000110F9401F824C000110F924
:10126000401F8250000110F9401F8254000110F904
:10127000401F8258000110F9401F825C000110F9E4
:10128000401F8260000110F9401F8264000110F9C4
:10129000401F8268000110F9401F826C000110F9A4
:1012A000401F8270000110F9401F8274000110F984
:1012B000401F8278000110F9401F827C000110F964
:1012C000401F8280000110F9401F8284000110F944
:1012D000401F8288000110F9401F828C000110F924
:1012E000401F8290000110F9401F8294000110F904
:1012F000401F8298000110F9401F829C000110F9E4
:10130000401F82A0000110F9402F000010000004CF
:10131000402F000800000081402F000C00000081D9
:10132000402F00108000001B402F00148200001B83
:10133000402F00188400001B402F001C8600001B5B
:10134000402F002090000021402F0024A000001911
:10135000402F0028A8000017402F002CA900001BD8
:10136000402F003000000021402F0004000079A829
:10137000402F004000000F31402F0044006529221B
:10138000402F004800010920402F004C50210A083E
:10139000402F008000000021402F008400888888B2
:1013A000402F009400000002402F00980000000031
:1013B000402F009080000000402F009CA55A000F95
:1013C000CF000C1C402F003C00000001CC00140496
:1013D000402F009080000000402F009CA55A000C78
:1013E000CF000C1C402F003C00000001CC00140476
:1013F000402F009080000000402F009CA55A000C58
:10140000CF000C1C402F003C00000001CC001C044D
:10141000402F00A000000033402F0090800000000B
:10142000402F009CA55A000ACF000C1C402F003C06
:1014300000000001CC000C04402F004C50210A0990
:10200000000002207D5A0060B3300060EF360060AF
:1020100097370060CF3700609B47006000000000EA
:10202000000000000000000000000000BF5400603D
:10203000CB550060000000001D5B0060475B006046
:10204000695D0060715D0060795D0060815D0060C8
:10205000895D0060915D0060995D0060A15D006038
:10206000A95D0060B15D0060B95D0060C15D0060A8
:10207000C95D0060D15D0060D95D0060E15D006018
:10208000E95D0060E95E0060E95E0060E95E0060B5
:10209000F15D0060F95D0060015E0060095E006056
:1020A000115E0060195E0060215E0060295E0060C4
:1020B000315E0060395E0060415E0060495E006034
:1020C000515E0060595E0060615E0060695E0060A4
:1020D000715E0060795E0060E95E0060E95E00604C
:1020E000E95E0060E95E0060E95E0060E95E006054
:1020F000E95E0060E95E0060E95E0060E95E006044
:10210000E95E0060E95E0060E95E0060E95E006033
:10211000E95E0060E95E0060E95E0060E95E006023
:10212000815E0060895E0060915E0060995E006083
:10213000A15E0060E95E0060E95E0060E95E00604B
:10214000E95E0060E95E0060E95E0060E95E0060F3
:10215000E95E0060E95E0060E95E0060E95E0060E3
:10216000E95E0060E95E0060E95E0060E95E0060D3
:10217000E95E0060E95E0060E95E0060E95E0060C3
:10218000E95E0060E95E0060E95E0060E95E0060B3
:10219000E95E0060E95E0060E95E0060E95E0060A3
:1021A000E95E0060E95E0060A95E0060B15E00600B
:1021B000E95E0060E95E0060E95E0060E95E006083
:1021C000E95E0060E95E0060E95E0060E95E006073
:1021D000E95E0060E95E0060E95E0060E95E006063
:1021E000E95E0060E95E0060E95E0060E95E006053
:1021F000B95E0060E95E0060C15E0060C95E0060BB
:10220000E95E0060E95E0060D15E0060D95E00605A
:10221000E95E0060E95E0060E95E0060E95E006022
:10222000E95E0060E95E0060E95E0060E95E006012
:10223000E95E0060E95E0060E95E0060E95E006002
:10224000E95E0060E95E0060E95E0060E95E0060F2
:10225000E95E0060E95E0060E95E0060E95E0060E2
:10226000E95E0060E95E0060E95E0060E95E0060D2
:10227000E95E0060E95E0060E95E0060E95E0060C2
:10228000E95E0060E95E0060E95E0060E95E0060B2
:10229000E95E0060E95E0060E95E0060E95E0060A2
:1022A000E95E0060E95E0060E95E0060E95E006092
:1022B000E95E0060E95E0060E95E0060E95E006082
:1022C000E95E0060E95E0060E95E0060E95E006072
:1022D000E95E0060E95E0060E95E0060E95E006062
:1022E000E95E0060E95E0060E95E0060E95E006052
:1022F000E95E0060E95E0060E95E0060E95E006042
:10230000E95E0060E95E0060E95E0060E95E006031
:10231000E95E0060E95E0060E95E0060E95E006021
:10232000E95E0060E95E0060E95E0060E95E006011
:10233000E95E0060E95E0060E95E0060E95E006001
:10234000E95E0060E95E0060E95E0060E95E0060F1
:10235000E95E0060E95E0060E95E0060E95E0060E1
:10236000E95E0060E95E0060E95E0060E95E0060D1
:10237000E95E0060E95E0060E95E0060E95E0060C1
:10238000E95E0060E95E0060E95E0060E95E0060B1
:10239000E95E0060E95E0060E95E0060E95E0060A1
:1023A000E95E0060E95E0060E95E0060E95E006091
:1023B000E95E0060E95E0060E95E0060E95E006081
:1023C000E95E0060E95E0060E95E0060E95E006071
:1023D000E95E0060E95E0060E95E0060E95E006061
:1023E000E95E0060E95E0060E95E0060E95E006051
:1023F000E95E0060E95E0060E95E0060FFFFFFFFEC
:1024000010B450E8003F8B4313431C0040E80043E6
:10241000002BF6D110BC70472DE9F04104000D00EF
:10242000260036B2360AA0460FFA88F818F01F08C0
:10243000072E09D340F2BF52DFF8C818DFF8C808EA
:1024400000F0F6FDAFF30080DFF8C00800EB860770
:102450002A00D2B212FA08F2032111FA08F1380068
:10246000FFF7CEFFBDE8F08110B504000321200086
:1024700000B2FFF7D1FF10BD0A00D2B2002A04D08B
:10248000026952F00102026103E00269520852003F
:102490000261704740697047010001204968090ADC
:1024A0008840C0B27047C06D10F01F007047C06D0B
:1024B000C0F304407047416170470A00D2B2436ADA
:1024C00062F3000343627047406A10F001007047F6
:1024D00010B403690C00E4B253EA04231400E4B21C
:1024E00053EA4423036110BC704710B411F00F038A
:1024F000140414F470242343836510BC70474166B0
:102500007047406F704738B5040000200025280050
:10251000C0B2052809D2DFF8F8072900C9B250F87F
:102520002100A04201D06D1CF1E72800C0B20528AF
:1025300008D3A622DFF8DC17DFF8E40700F078FD07
:10254000AFF30080EDB2280032BD38B504000D00B5
:102550002000FFF7D8FFDFF8CC170D5431BDF8B5D8
:1025600005000C001600002C08D1C422DFF8A417C7
:10257000DFF8A40700F05CFDAFF3008000200090BE
:102580002800FFF7C0FF0700DFF8900730F91700B9
:10259000FFF76AFF01212800FFF78FFF627E217E8F
:1025A000280000F090F8696ADFF87C070140E07EBF
:1025B000800610F080600143A07E000610F040709D
:1025C000014369626B4632002168280000F08EF8F2
:1025D000002200212800FFF788FF207A617A89070E
:1025E00011F0804151EAC071A07AC00510F40000DA
:1025F00001436068401E0005000D01430098C006BD
:1026000010F060500143207E000610F0407001433E
:10261000296601212800FFF72FFF33000122E1681E
:10262000280000F0DDF8330002222169280000F0C4
:10263000D7F8330003226169280000F0D1F80021A7
:102640002800FFF782FFF1BDF8B50400002C09D186
:1026500040F20312DFF8BC16DFF8BC0600F0E8FC1D
:10266000AFF300801C250026270032002900380027
:1026700000F0ECFCDFF8B406206008206060002069
:102680002072002060720020A072DFF8A40621688A
:10269000B0FBF1F04000E060DFF894062168B0FB89
:1026A000F1F040002061DFF888062168B0FBF1F00E
:1026B0004000606100202076002060760020A07637
:1026C0000020E076F1BD70B40024436A012611F1C8
:1026D000080516FA05F533EA05051600F6B211F1FC
:1026E00008039E402E43466270BC70472DE9F24FAE
:1026F000050016001C00002C09D140F2B112DFF8D1
:102700001416DFF8300600F093FCAFF300802800C9
:10271000FFF7DAFE002802D02869C00701D50020A3
:1027200036E0DDF800E05FF0FF315FF007084FF0C2
:10273000FF0900205FF0000ABAF1080F22D2002939
:1027400020D000221300B3F5807F18D2002916D0C4
:10275000DFF8E42512F80AB09A1C02FB0BFBB6FB6B
:10276000FBF21700BE4508D3BEEB070294468C452A
:1027700003D26146D046994638005B1CE3E71AF164
:10278000010AD9E72A6C69F307022A64C4F80080B9
:10279000BDE8F28F70B504000D0016003000C0B225
:1027A000012804D012D303280BD005D30EE0206CEF
:1027B00065F31740206412E0206C65F31F6020640D
:1027C0000DE0206C65F30F20206408E04FF41172D7
:1027D000DFF840158CA000F02BFCAFF3008070BD3B
:1027E0002DE9FF4F89B000260C98DFF84C15099AA7
:1027F000126EC2F3C262895CB0FBF1F000905FF030
:10280000FF300190FF2004909DF82C00032828D170
:10281000DFF81C2500235FF002085FF00009A8FB29
:10282000020108FB031109FB0211009A002300F0CA
:1028300041FCCDE90601DFF8F824002340F201183D
:102840005FF00009A8FB020108FB031109FB02115C
:10285000009A002300F02EFC804689460120039058
:102860001DE0DFF8CC040021009A002300F022FCD8
:10287000CDE90601DFF8B82400234FF480785FF03B
:102880000009A8FB020108FB031109FB0211009AD1
:10289000002300F00FFC8046894600200390DDE90C
:1028A00006230A9800218B420BD301D8824208D319
:1028B0009DF82C2000210998FFF76CFFDDE9060147
:1028C0003BE00026B6F5807F30D2019800282DD05D
:1028D000DFF85CA45FF0000B00270398002130189C
:1028E0007941421C71F1FF33A2FB0A0102FB0B117B
:1028F00003FB0A11009A002300F0DCFB04000D002A
:102900000A9800218D420FD301D884420CD32100B4
:102910000A98091A029102980199884204D20298F1
:1029200001900496A046A946761CCBE79DF82C2082
:1029300004990998FFF72EFF40460DB0BDE8F08FCF
:10294000F8B505000C001600002C09D140F2FD225C
:10295000DFF8C013DFF8E40300F06AFBAFF3008098
:10296000296E0905090D491CCA1DD2086B6A13F0AE
:102970004073A068002801D1002043E020680028AF
:1029800004D16068002801D100203BE0052A08D26C
:10299000A068B0FBF2F702FB1700002812D000205D
:1029A00030E012F0030F04D0A06890420AD000205B
:1029B00028E0A068B0FBF2F702FB1700002801D066
:1029C00000201FE0B3F1807F02D0B3F1007F0ED171
:1029D0002068002804D06068002801D0002011E0A1
:1029E0002068002803D1686A50F080606862300077
:1029F000C0B2002805D012F00300032801D1002046
:102A000000E00120F2BD0000300000002DE9F34F8E
:102A100087B007000898002809D140F25332DFF848
:102A2000F412DFF8180300F003FBAFF30080380066
:102A3000FFF730FDC00102D54FF4C8705FE10021FF
:102A40003800FFF719FD002208993800FFF778FFDA
:102A5000002801D1042052E1012201213800FFF7B2
:102A600037FDDFF8DC123800FFF725FD00208DF878
:102A700002000898C06810F48000800D8DF80300F3
:102A8000089800680290089844683800FFF73BFDFA
:102A9000DFF89012085C8DF801005FF0000B0898D9
:102AA0008668089885689DF801809DF8010058EABD
:102AB00000289DF8010058EA00489DF8010058EAF6
:102AC00000683800FFF7E8FC0390386EC0F3C800D8
:102AD000401C01900898C068C00208D50198089968
:102AE0008968884203D201208DF8000002E00020AE
:102AF0008DF800000198042801D2019900E004211A
:102B00000398414306910898C068C0F303100590EC
:102B1000786A10F0407004900498B0F1807F03D080
:102B20000498B0F1007F05D10298002802D101205D
:102B30008DF80200786A30F00800786201213800D0
:102B4000FFF79AFC386E30F04F700599090611F0C6
:102B5000407108433866380000F0E4F9002802D1DB
:102B60004FF4CA70CBE0002C01D1012000E000201E
:102B7000396E9DF8002051EA42519DF8002051EA3B
:102B80000251C0B251EAC0413966380000F0CAF9BA
:102B9000002802D14FF4CA70B1E00198052804D290
:102BA000DDF80490DDF804A003E05FF004095FF0B5
:102BB000040A002E69D04846C0B2864201D23000D5
:102BC00081463800FFF76FFC03998842F9D0002C4A
:102BD00003D0A81B069988422CD29DF80200002839
:102BE00011D0386E50F4802038669DF8000000281F
:102BF00006D00198864203D1386E30F45010386602
:102C00000198361A16E0029800280CD09DF803208F
:102C10004946C9B2029800F095F8804602984946A4
:102C2000C9B20844029041463800FFF768FC4846A4
:102C3000C0B2361A002CBCD0002DBAD09DF80200CC
:102C4000002804D03800FFF732FC0028F6D0380006
:102C5000FFF72DFC0028ACD03800FFF752FC83466C
:102C60005046C0B2854201D2280082469DF803300A
:102C70005246D2B25946200000F0E0F85046C0B2A9
:102C800004445046C0B22D1AE1E79DF800009DF8BB
:102C9000021091F00101084209D03800FFF703FC4F
:102CA00003998842F9D0386E30F440103866002C11
:102CB0001FD0002D22D03800FFF7F9FB0028F8D0F4
:102CC0003800FFF71EFC83465046C0B2854201D251
:102CD000280082469DF803305246D2B25946200061
:102CE00000F0ACF85046C0B204445046C0B22D1AB1
:102CF000E1E73800FFF7CEFB4005FAD5002009B028
:102D0000BDE8F08FB4570060AC5C006068C00F4055
:102D1000785C0060FC570060645C00601C5D0060D3
:102D2000605900605C180020F7FFFFF820A1070041
:102D300000CA9A3BEC5B0060505D0060BC5C0060C8
:102D4000033F0001F8B504000D001600002C07D168
:102D500040F2CE72A849AA4800F06AF9AFF30080A9
:102D600000272800C0B2012806D05DD303281BD05D
:102D700006D3042834D057E020780700641C5BE0B9
:102D80003000C0B2002807D12178601C027851EAD7
:102D900002210F00441C06E022781202611C087810
:102DA000024317004C1C47E03000C0B200280BD192
:102DB0002178601C027851EA0221401C027851EA15
:102DC00002410F00441C0AE022781204601C0178C2
:102DD00052EA0122411C0878024317004C1C2BE0E8
:102DE0003000C0B200280FD12178601C027851EA6F
:102DF0000221401C027851EA0241401C027851EA4B
:102E000002610F00441C0EE022781206601C01785B
:102E100052EA0142401C017852EA0122411C087822
:102E2000024317004C1C07E040F61A02724971A0D9
:102E300000F0FEF8AFF300803800F2BDF8B50400F2
:102E40000D0016001F00002C07D140F622026A492F
:102E50006C4800F0EDF8AFF300803000C0B20128FC
:102E600006D056D3032818D005D304282FD050E01D
:102E70002570641C55E03800C0B2002806D12570CA
:102E8000601C2900090A0170441C05E02800000AA2
:102E90002070601C0570441C43E03800C0B200285C
:102EA0000AD12570601C2900090A0170401C290004
:102EB000090C0170441C09E02800000C2070601C03
:102EC0002900090A0170401C0570441C29E03800E3
:102ED000C0B200280ED12570601C2900090A0170BB
:102EE000401C2900090C0170401C2900090E0170CA
:102EF000441C0DE02800000E2070601C2900090C05
:102F00000170401C2900090A0170401C0570441C16
:102F100007E040F66B02384936A000F089F8AFF3BD
:102F20000080F1BD10B504002000FFF7BCFAC0B26C
:102F30000028F9D1012010BD38B504000D00200093
:102F4000FFF7C2FA002805D0290020002E4A126897
:102F5000904704E029002000284A12689047BFF3F8
:102F60004F8F31BD10B5294C6068002807D140F65D
:102F70009D022149264800F05BF8AFF300806168AC
:102F80002448FFF7D9FF10BD10B5204CA0680028D9
:102F900007D140F6A60218491F4800F049F8AFF3E0
:102FA0000080A1681D48FFF7C7FF10BD10B5174C82
:102FB000E068002807D140F6AF020F49184800F03A
:102FC00037F8AFF30080E1681648FFF7B5FF10BD92
:102FD00010B50E4C2069002807D140F6B80206490A
:102FE000114800F025F8AFF3008021690F48FFF782
:102FF000A3FF10BD30000000FC57006058180020EF
:10300000045D0060105D006054180020401800202E
:10301000045C0060004039401C5C00600080394066
:10302000345C006000C039404C5C006000003A40F5
:1030300070B504000D00160033002A00210002487C
:1030400000F050F900BEFDE7505A006062F30F2215
:1030500062F31F42401810F0030308D0C91A1FD3AF
:10306000DB0748BF00F8012D28BF20F8022D130010
:1030700030B414461546103928BF20E93C00FAD870
:10308000490728BF20E90C0048BF40F8042D8900FB
:1030900028BF20F8022D48BF00F8012D30BC704732
:1030A000C91818BF00F8012DCB0728BF00F8012D63
:1030B0007047FEE7BBBBE1B1B2F5803F80F07E8098
:1030C000022A1ED98C46B1FBF2F102FB11C31B048C
:1030D00043EA1043B3FBF2FC02FB1C3380B240EA2C
:1030E0000343B3FBF2F002FB103240EA0C40002332
:1030F0007047022A05D98446B0FBF2F002FB10C2E9
:1031000070474AB105D100F0010249085FEA30007A
:10311000704700220023704700F0E8BA0B0002005D
:10312000002100207047904271EB030CF6D3B3F5F9
:10313000803F2FD2F0B5B3FA83F7B1FA81F4A7F14B
:103140000F0E3D1B5340CEF1200602FA0EF2F34162
:103150005340B5F10F0746D80F3C2C444140C4F111
:103160002006A040F1414140B1FBF3F603FB1611EC
:10317000A2FB0645001BA94102D2761E80185941C8
:1031800080EA010221FA0EF362FA0EF200215A409F
:103190003046F0BD30B4B1FBF3FC03FB1C11A2FBC5
:1031A0000C45001BA94103D2ACF1010C8018594118
:1031B00030BC02460B46604600217047B2F1807F6A
:1031C00065D3F0B5B2FA82F7B1FA81F4C7F10F0610
:1031D0003D1B22FA06F307F1110EF24120355A4049
:1031E000B5F10F07B8D94140C4F12006A040F14124
:1031F0004140B1FBF3FC03FB1C11A2FB0C45001B7F
:10320000A94103D2BCF1010C801859410F2F12D3F0
:103210000F3FC90341EA5041B1FBF3F603FB16111E
:10322000A2FB0645D4EBC030A94102D2761E80181D
:10323000594146EACC3C07B34140C7F12006B840AB
:10324000F1414140B1FBF3F603FB1611A2FB064529
:10325000001BA94102D2761E8018594180EA010262
:1032600021FA0EF3C7F1200462FA0EF20CFA07F00D
:103270005A402CFA04F13043F0BD80EA010221FAF1
:103280000EF3002162FA0EF260465A40F0BD8C4601
:10329000B1FBF2F102FB11C31B0243EA1063B3FB63
:1032A000F2FC02FB1C331B024CEA002043EA1063D1
:1032B000B3FBF2FC02FB1C331B024CEA002043EA86
:1032C0001063B3FBF2FC02FB1C331B024CEA002030
:1032D00043EA1063B3FBF2FC02FB1C324CEA002011
:1032E000002370470EB478B50400002605AD290010
:1032F000200000F003F872BC5DF810FB70B504000C
:103300000D0000260D48007C002802D15FF0FF3040
:1033100005E02A0021000FF2090000F066F870BDF8
:1033200001B50648017C002902D15FF0FF3004E0BE
:103330000122694683689847012002BD2C180020AD
:103340002DE9F84304000D0016001F00DDF8208071
:10335000A946B14508DA2000C0B2C0473868401C11
:10336000386019F10109F4E7BDE8F1832DE9F64F62
:1033700005000B9A0020290000240C704E1C002729
:103380005FF0000C5FF0000E5FF000085FF0000BD4
:103390005FF0000900245FF0000A00990968002925
:1033A00005D15FF0300B86F800B0401C1BE000290F
:1033B00019D0B1FBF3FBD94603FB191BBBF10A0F74
:1033C00002D25C46303409E01400E4B2002C01D093
:1033D000412400E0612414EB0B040A3C494634709C
:1033E000761C401CE3E7BDE8F68F2DE9F34F93B060
:1033F0008046914600250020039000200290002086
:103400008DF8050000200490DDF850B09BF8000016
:10341000002801D1029866E19BF8000082465046E0
:10342000C0B2252808D05046C0B2C0470298401C00
:1034300002901BF1010BE9E701208DF80600002046
:10344000060000208DF804009DF80400002818D123
:103450001BF1010B9BF8000082465046C0B2302899
:1034600009DB5046C0B23A2805DA0A20464356FA2C
:103470008AF6303EE8E7BBF1010B01208DF804002D
:10348000E2E71BF1010108782E281ED10020070079
:1034900000208DF804009DF80400002816D1491C76
:1034A000087882465046C0B2302809DB5046C0B288
:1034B0003A2805DA0A20474357FA8AF7303FEAE705
:1034C000491E01208DF80400E5E7491E481C0790BD
:1034D0000798007882465046C0B2642824D05046EF
:1034E000C0B2692820D05046C0B266281CD05046D1
:1034F000C0B2462818D05046C0B2782814D05046E2
:10350000C0B2582810D05046C0B26F280CD05046D8
:10351000C0B2622808D05046C0B2702804D05046CD
:10352000C0B2752840F0A5805046C0B2642803D0D0
:103530005046C0B2692812D1D9F8000019F1040927
:1035400005909DF8060000900A23012205A90AA80B
:10355000FFF70CFF03900AA80399084405005046A2
:10356000C0B2582803D05046C0B2782819D150466E
:10357000C0B2782802D100208DF80600D9F80000EA
:1035800019F1040904909DF8060000901023002210
:1035900004A90AA8FFF7EAFE03900AA803990844C1
:1035A00005005046C0B26F280BD05046C0B262280A
:1035B00007D05046C0B2702803D05046C0B275281C
:1035C00043D15046C0B2702810D1D9F8000019F18B
:1035D0000409009004200990684608900DF1100B32
:1035E000099A0899584600F083F804E0D9F80000D9
:1035F00019F1040904905046C0B262280AD06F281D
:1036000004D070280AD075280CD00FE008208DF85F
:1036100005000BE002208DF8050007E010208DF872
:10362000050003E00A208DF80500FFE79DF806007D
:1036300000909DF80530002204A90AA8FFF796FE25
:1036400003900AA8039908440500CDF8008002AB56
:10365000320003992020FFF773FE002D3FD0287819
:1036600000283CD02878C0476D1E0298401C02906C
:10367000F5E75046C0B263280AD1D9F8000019F125
:10368000040906900698C0470298401C029026E064
:103690005046C0B273281CD1D9F8000019F10409B2
:1036A0000400002C1BD0200000F076F80390CDF829
:1036B000008002AB320003992020FFF741FE207802
:1036C00000280CD02078C047641C0298401C02904F
:1036D000F5E75046C0B2C0470298401C02900798D8
:1036E00010F1010B92E615B0BDE8F08F7047FEE7D0
:1036F00062B38B0708D0521E11F8013B00F8013B62
:1037000000F024808B07F6D1830740F0208000BFB3
:10371000103A07D330B4B1E83810103AA0E83810A6
:10372000F9D230BC530724BFB1E80810A0E8081054
:1037300044BF51F8043B40F8043BD20724BF31F8A2
:10374000022B20F8022B44BF0B7803707047121F26
:1037500017D35B0009D151F8043B20F8023B1B0C46
:10376000121F20F8023BF6D20BE051F8043B00F8A0
:10377000013B1B0A20F8023B1B0C121F00F8013B07
:10378000F3D238BF121D521E24BF11F8013B00F8BE
:10379000013BF8D87047FEE700F10103810704D030
:1037A00010F8011B820781B1FAD10268A2F1013140
:1037B000914311F0803104BF50F8042FF6E709BAA5
:1037C000B1FA81F100EBD100401CC01A7047FEE74E
:1037D000DFF800F057070020DFF800F0BD070020F9
:1037E000DFF800F0A1070020DFF800F087090020D3
:1037F000DFF800F0110A0020DFF800F01D0A0020B9
:10380000DFF800F0070A002010B450E8003F8B43B7
:1038100013431C0040E80043002BF6D110BC704756
:10382000F8B504000D002600B60EDFF8900604F08F
:10383000FF0141180968C4F34C3223001B0A13F03E
:103840001F039A4091432200120A12F01F0215FA38
:1038500002F2C4F34C3327003F0A17F01F07BB40A6
:103860001A40114304F0FF0280180160212E09D391
:1038700040F26952DFF84816DFF84806FFF7D8FB38
:10388000AFF30080202E05D0DFF83C060068F04042
:10389000C007F9D4F1BDF8B504000D002600B60E3E
:1038A000DFF8180604F0FF0141180968C4F34C3230
:1038B00023001B0A13F01F039A4091432200120AAF
:1038C00012F01F0215FA02F2C4F34C3327003F0A2C
:1038D00017F01F07BB401A40114304F0FF02801885
:1038E0000160212E09D340F29D52DFF8D415DFF894
:1038F000D405FFF79DFBAFF30080202E05D0DFF845
:10390000C8050068F040C007F9D4F1BD2DE9F041C9
:1039100004000D00260036B2360AA0460FFA88F8D9
:1039200018F01F08072E09D340F2BF52DFF8901598
:10393000DFF89805FFF77CFBAFF30080DFF8900518
:1039400000EB86072A00D2B212FA08F2032111FA1C
:1039500008F13800FFF758FFBDE8F08110B504000A
:103960000021200000B2FFF7D1FF10BDDFF8641581
:1039700008607047DFF860150860704710B41300E6
:10398000DBB2002B07D0C1F30B431B181B1D5FF4E8
:1039900080341C6006E0C1F30B431B1808335FF44E
:1039A00080341C6010BC704710B40B00DBB2042BD9
:1039B0000CDB446803238B4034EA03031400E4B2B5
:1039C00014F003048C401C4344600BE0446807235C
:1039D0008B4034EA03031400E4B214F007048C4073
:1039E0001C43446010BC704730B48468DFF8EC348A
:1039F0001C400B00DBB29B0613F0806323431500D1
:103A0000EDB253EA0543836030BC704780B500F0E7
:103A100001F801BD2DE9F0414FF40040FFF7AAFF86
:103A2000DFF8BC04016851F480310160016831F4B1
:103A300000310160DFF8AC04FFF798FF0020FFF7CA
:103A4000C7FEFFF7C9FE0120FFF7CAFEDFF86C04CE
:103A50007F21026861F307020260DFF88C440121D4
:103A60002000FFF7DDFEDFF8845401212800FFF776
:103A7000D7FEDFF87C041321026861F304020260C0
:103A8000DFF8700400680028FAD50021DFF8680428
:103A9000FFF701FF4FF48870FFF760FF4FF4847069
:103AA000FFF75CFF40F21620FFF758FF4FF4067057
:103AB000FFF754FF40F20E20FFF750FF0321DFF81D
:103AC0003C04FFF7E8FE0121DFF83404FFF7E3FED2
:103AD0000021DFF83004FFF7DEFE4FF48A70FFF7B5
:103AE0003DFF4FF48B70FFF739FF1820FFF736FFCB
:103AF0001A20FFF733FF4FF48670FFF72FFF0121E5
:103B0000DFF80404FFF7C7FE40F20260FFF726FF6C
:103B10000121DFF8F803FFF7BEFE0021DFF8F00314
:103B2000FFF77EFE40F20460FFF718FF0121DFF887
:103B3000E403FFF7B0FE0021DFF8DC03FFF770FEBF
:103B400040F20220FFF70AFF0121DFF8D003FFF760
:103B5000A2FE0021DFF8C803FFF762FE4FF4807079
:103B6000FFF7FCFE4FF48170FFF7F8FE4FF4827010
:103B7000FFF7F4FE4FF48370FFF7F0FE0421DFF847
:103B8000A403FFF788FE0221DFF89C03FFF748FE3D
:103B90001620FFF7E3FE0321DFF89003FFF77BFE1B
:103BA0000021DFF88C03FFF73BFE40F21250FFF7D5
:103BB000D5FE0321DF48FFF76EFE0121DE48FFF747
:103BC0006AFE0021DD48FFF72BFE40F21450FFF79C
:103BD000C5FE0321DA48FFF75EFE0121D948FFF751
:103BE0005AFE0021D848FFF71BFE40F21650FFF79F
:103BF000B5FE0321D548FFF74EFE0121D448FFF75B
:103C00004AFE0021D348FFF70BFE40F20620FFF7E3
:103C1000A5FE4FF40270FFF7A1FE40F20A20FFF765
:103C20009DFE0021CC48FFF736FE0021CB48FFF770
:103C3000F7FD0E20FFF792FE1220FFF78FFE1020F7
:103C4000FFF78CFE1420FFF789FE0121C448FFF71F
:103C500022FE0221C348FFF7E3FD4FF4A360FFF704
:103C60007DFE1C20FFF77AFE0C20FFF777FE4FF455
:103C70008C70FFF773FE40F20230FFF76FFE40F2E8
:103C80000630FFF76BFE40F21A50FFF767FE40F276
:103C90000E60FFF763FE0021B348FFF7FCFD002133
:103CA000B248FFF7BDFD40F20A30FFF757FE012191
:103CB000AF48FFF7F0FD0321AE48FFF7ECFD05210B
:103CC000AD48FFF7ADFD40F20E50FFF747FE012172
:103CD000AA48FFF7E0FD0721A948FFF7DCFD032113
:103CE000A848FFF79DFD40F20250FFF737FE012183
:103CF000A548FFF7D0FD0721A448FFF7CCFD03211D
:103D0000A348FFF78DFD4FF44070FFF727FE012118
:103D1000A048FFF7C0FD07219F48FFF7BCFD032126
:103D20009E48FFF77DFD00219D48FFF779FD9D48E6
:103D3000FFF75AFDFFF75CFD9B4E01229B493000C7
:103D4000FFF71CFE9A49086830F4004008600868D4
:103D500030F4000008609748026852F40052026094
:103D6000954A106830F4005010600420136860F326
:103D7000903313600020914B18600120904B186025
:103D800017689048074047F4005757F01F0757F44B
:103D90000027086850F0404008601760106800284D
:103DA000FCD5002288493000FFF7E8FDFFF724FD2D
:103DB000012286493000FFF7E1FD85485FF00108E8
:103DC000016868F301010160016851F4005101606C
:103DD000016851F400110160FFF712FD01227D49D5
:103DE0003000FFF7CBFD7C48016851F400510160C1
:103DF00003217A48FFF714FD00212800FFF710FD8A
:103E000000212000FFF70CFD00217548FFF708FD99
:103E1000744801684909490101607348016831F03B
:103E200070010160016868F303010160016831F409
:103E3000600101601221026861F3144202600168AE
:103E400031F480710160016831F080010160016826
:103E500031F080710160654C002200212000FFF7E5
:103E6000A3FD002203212000FFF79EFD0022062172
:103E70002000FFF799FD002208212000FFF794FDA4
:103E800000220A212000FFF78FFD002200212000E0
:103E9000FFF7AAFD5648016831F40031016055482A
:103EA000016831F080510160016831F0005101601A
:103EB000514852490860BDE8F081000000C00F4041
:103EC00094560060A45B006048C00F408C5C0060AA
:103ED00068C00F402418002028180020FFFF00FBB6
:103EE000C0820D4000366E01186C00801439001439
:103EF0000C0008400000084014EA00041468008028
:103F000010E0004014FB00801CE0078024EB0080E0
:103F10001C30008024F000801C3100803CEB0080CD
:103F20003C69008018FA00801864008024790080C1
:103F3000186E008028E6008028E007801C6A008058
:103F40002CE600802CE007801C6C008028F60080A6
:103F500028F007801C6E008038F30780383200801C
:103F600020E207802068008024E00780242600806B
:103F700038EC008018F7008038EF008030F90080BE
:103F800030F600803074008030EC008030E9008032
:103F90003067008028E9008028F9008020730080C5
:103FA0000C200080485D006000800D400D00700016
:103FB00070810D4070800D40A0800D40B0800D409C
:103FC000C0800D4080EFFFFF0D00A0000D00E0005D
:103FD000E0800D400D00200020800D401872008010
:103FE0001C26008060810D4060C00F4000C00A4068
:103FF00004C00A4014C00A400046C323EC17002046
:10400000DFF800F0A9050020DFF800F03B040020F5
:10401000DFF800F0A1040020DFF800F01505002013
:10402000BFF34F8FDFF8F8140A6812F4E062DFF88C
:10403000F40402430A60BFF34F8F00BFFDE738B5B9
:1040400004000D00DFF8E004056084F3088884F3C1
:1040500009880068804731BDF8B504000020DFF80A
:10406000CC140860BFF34F8FDFF8C414086830F435
:1040700080300860BFF34F8FDFF8B8040668C6F3DE
:104080004E37C6F3C900050043F6E07010EA47104A
:1040900050EA8570DFF8A02410602800451E002833
:1040A000F2D13800471E0028EBD1BFF34F8FBFF38A
:1040B0006F8FBFF34F8FBFF36F8F086830F40030FE
:1040C00008600020DFF874140860BFF34F8FBFF35F
:1040D0006F8FBFF35F8FDFF868040460201D0168F5
:1040E0002068FFF7ACFFF1BD010000200A00D2B24A
:1040F000302A07DB0A00D2B23A2A03DAB1F13002E1
:1041000010000AE00A00D2B2412A06DB0A00D2B24D
:10411000472A02DAB1F13702100040B270477CB58D
:1041200004000D00022100226E463000FEF78EFFD3
:10413000002000263000C0B202280ADA55FA86F0C4
:10414000205CFFF7D1FF69463200D2B28854761C5A
:10415000F0E79DF900109DF9010050EA0110C0B28E
:1041600076BD10B4020000230024002901D1FF20F5
:104170000DE0002003008B4205D202EB03004078E3
:1041800004195B1CF7E7E4B2E443641C2000C0B2EE
:1041900010BC704780B5DFF8AC030168491C0160B2
:1041A0000168152906D200220321DFF89C0300F0E4
:1041B00074FA0EE00168152909D30168172906D29F
:1041C00001220321DFF8800300F067FA01E00021FB
:1041D000016001BD80B5DFF874030168491C01600E
:1041E0000168332908D200220321D74800F055FA8C
:1041F000D74800F0D3FB0FE0016833290AD30168E8
:1042000040F29112914205D201220321CE4800F0E2
:1042100044FA01E00021016001BD2DE9FF4700F0F3
:10422000E8FB00F022FDFFF7F1FB00F0B6FEC94C01
:1042300002224FF48051200001F004F82078AA28CF
:1042400002D16078AA2802D0C348FFF705FFC34D0A
:104250002800FFF7D5FE2800FFF7D6FEC04E00204D
:1042600086F86700BF4F00203860DFF8FC8200202E
:10427000C8F8000001203066002086F866000020A3
:1042800086F867005FF00009B9F5166F1CD2FFF7DA
:1042900081FFDFF8D8A24FF4805101FB09F111F53D
:1042A00000312800FFF7B4FECAF80000DAF8000079
:1042B000002806D0012086F86700012086F86600F5
:1042C00002E019F10109DFE7684600F0DFFA0F208C
:1042D000ADF8060069469E4800F000FB96F86600BF
:1042E000002840F00581FFF775FF386810F5803031
:1042F000306716F1040A2D22316F504600F0A2FFFC
:10430000307986F8360000208146B9F1150F0CD2BD
:104310005FEA4901491C5046FFF701FF06EB09011E
:1043200081F8370019F10109EFE796F836003A28CD
:1043300059D1012086F8650096F8360086F83100DC
:1043400096F8370086F8320096F8380096F839105B
:1043500051EA0021A6F85E1096F83A0086F833007C
:1043600096F83300012802D0042804D008E0012088
:1043700086F8660004E096F83C0086F86900FFE7DE
:1043800096F86900B6F85E1051EA0041F16696F8B9
:104390003200304490F83B0086F8340096F8321032
:1043A000091D16F13600FFF7DCFE86F8350096F899
:1043B000320006EB4000C07B96F83210314481F8A1
:1043C0003C0096F8320006EB4000007C96F8321074
:1043D000314481F83D00386896F8321049000D31BB
:1043E0000818386017E0012086F86700002086F87A
:1043F0006500002086F83100002086F83200002099
:10440000A6F85E00002086F83300FF2086F834000E
:10441000002086F8350096F8340096F8351088426A
:104420005AD10020814696F8320081450AD206EB27
:10443000090090F83B0006EB090181F84E0019F1E4
:104440000109F0E796F83300002841D196F83200D0
:10445000102190FBF1F201FB120000280ED1F06E4A
:10446000B0F5003F2AD396F8323016F14E02F16EC5
:104470002800FFF7D1FD3D4908601FE0002081467C
:1044800096F83200D0F1100081450AD296F8320039
:1044900019EB00003044FF2180F84E1019F101099A
:1044A000EEE7F06EB0F5003F08D3102316F14E0290
:1044B000F16E2800FFF7B0FD2C4908602B4800681A
:1044C000002805D0012086F86700012086F86600E4
:1044D000012086F8640007E0002086F86400D8F820
:1044E0000000401CC8F80000306E401C3066F5E645
:1044F00096F8670000280FD100202070002060701F
:104500004FF4805000F0A9FD02224FF480512000AA
:1045100000F0EEFDFFF784FD002004B0BDE8F08759
:104520000CED00E00400FA050C19002084ED00E019
:1045300014ED00E080ED00E074EF00E050EF00E0EB
:1045400008ED00E01019002000001C4014190020A4
:1045500000800B40181900200000026000802A40F3
:104560008C180020001900200419002008190020D0
:1045700010B450E8003F8B4313431C0040E8004355
:10458000002BF6D110BC70472DE9F04104000D005E
:10459000260036B2360AA0460FFA88F818F01F082F
:1045A000072E07D340F2BF5249494A48FEF740FD63
:1045B000AFF30080484800EB86072A00D2B212FA17
:1045C00008F2032111FA08F13800FFF7D1FFBDE826
:1045D000F08110B504000321200000B2FFF7D4FFE2
:1045E00010BD70B504000D0016003200D2B22900D3
:1045F000200000F07DF870BD38B504000025062DC0
:1046000006D2364850F82500A04201D06D1CF6E7CE
:10461000062D06D3392232493248FEF709FDAFF3A1
:104620000080280032BD2DE9F04104000D00160085
:104630002000FFF7E1FF0700062F09D22A4830F9D2
:10464000171011F1010F03D030F91700FFF7C1FF68
:104650005FF00108616918FA05F081436161307803
:10466000002807D1606818FA05F830EA0808C4F88D
:1046700004800BE072782900200000F00EF86068DA
:1046800018FA05F858EA0008C4F80480B27829003E
:104690002000FFF7A6FFBDE8F08170B504000D0013
:1046A0001600202D06D371220D491048FEF7C0FCDC
:1046B000AFF300803000C0B2002804D10120A84030
:1046C000C4F8880003E00120A840C4F8840070BD4D
:1046D000245700609C5C006068C00F40D45B0060A1
:1046E0006C570060A0590060F85C0060EC5C0060F2
:1046F000F0B40C000126C56916FA01F39D43C561AB
:10470000102902D210F10C0502E010F11005103C46
:104710001300DBB2012B07D03DD3032B1ED00CD3EB
:10472000052B33D029D336E02E6803272300DBB2D4
:104730005B009F40BE432E602DE02F685FF0030CAE
:104740002300DBB25B001CFA03FC37EA0C072300F2
:10475000DBB25B009E403E432E601CE02E680327C8
:104760002300DBB25B009F40BE4302272300DBB285
:104770005B009F403E432E600DE02E680327230020
:10478000DBB25B009F403E432E6004E0C3698E4075
:104790001E43C661FFE7F0BC7047FEE7010009B2A7
:1047A000002909D4012210F01F018A407149030039
:1047B0001BB25B0941F82320704710B450E8003F5A
:1047C0008B4313431C0040E80043002BF6D110BC80
:1047D00070472DE9F04104000D00260036B2360A7C
:1047E000A0460FFA88F818F01F08072E07D340F2EA
:1047F000BF5261496148FEF71BFCAFF3008060487F
:1048000000EB86072A00D2B212FA08F2032111FA4D
:1048100008F13800FFF7D1FFBDE8F08110B50400C2
:104820000321200000B2FFF7D4FF10BD38B504000B
:10483000002520007FF07F0100B2884202D10120D4
:10484000050003E0200000B2FFF7A8FF280032BDFA
:10485000EFF3108072B6704780F31088704738B558
:1048600004000025032D06D2464850F82500A0423A
:1048700001D06D1CF6E7032D06D32B224249434895
:10488000FEF7D6FBAFF30080280032BDF8B5040078
:10489000002C06D146223C493D48FEF7C9FBAFF348
:1048A00000800E2500262700320029003800FEF780
:1048B000CDFB01202070002060700020A07000203F
:1048C000E070002020710020A0720020E072FF2024
:1048D000E0800420208100202073F1BD2DE9F84301
:1048E00005000C00002C06D16A2227492848FEF753
:1048F0009FFBAFF300805FF000085FF000092078B5
:104900006678F60156EA8006A0780643E07856EA13
:104910004006A07A56EA8016E08856EA0026207BF8
:1049200056EAC00656F030062800FFF798FF1949EE
:1049300031F91000FFF772FFFFF78AFF0700207AB6
:1049400000F0FF00217950EAC130E880E07A288148
:104950002E803800FFF780FF2079002807D028003C
:10496000FFF77DFF0C4931F91000FFF75FFFBDE84D
:10497000F183000000E100E044580060CC5C00607E
:1049800068C00F40345D00608C580060DC590060E6
:10499000285D0060585D0060605D006070B50400D7
:1049A0000025FFF755FF060045F2555060804AF696
:1049B000AA2060803000FFF74FFF70BD50F001016A
:1049C000644A116064490A6852F480320A60BFF395
:1049D0004F8FBFF36F8F7047BFF35F8F5E480168E3
:1049E00031F4803101605B48016849084900016089
:1049F0007047F8B5594C5A4D00200090594801684D
:104A000089030ED5BFF34F8FBFF36F8F016831F469
:104A1000003101600021544A1160BFF34F8FBFF392
:104A20006F8F0168C90325D50022504B1A60BFF370
:104A30004F8F026832F480320260BFF34F8F4C48D0
:104A40000268C2F34E33C2F3C900010043F6E070BE
:104A500010EA431050EA8170464E30600800411E53
:104A60000028F3D11800431E0028ECD1BFF34F8F6C
:104A7000BFF36F8FFFF7B0FF3F4E102030603F4F06
:104A80003F4838603F4830603F4838603F493160B8
:104A900038603F4830603F483860142030603E48FE
:104AA0003860152030603D4838603D4931603860DD
:104AB0003C4830603C4838603C4830603C48386096
:104AC00000982900C140022903D30098401C00909F
:104AD000F6E70098002834D0B4FBF5F005FB104051
:104AE000002807D04FF4B57232493348FEF7A0FAD8
:104AF000AFF300800121009881408D4207D040F241
:104B00006B122C492D48FEF793FAAFF30080009802
:104B1000052807D24FF4B67226492948FEF788FACD
:104B2000AFF300806009400150F019003060009838
:104B3000401E400010F03E0040F0427050F0010076
:104B4000386020483060204838600420FFF736FF86
:104B5000F1BD000094ED00E024ED00E00000202015
:104B60000000000014ED00E050EF00E084ED00E0F4
:104B700080ED00E074EF00E09CED00E0A0ED00E0CF
:104B80003F00001011000080390010031200006087
:104B900013000060330003063B00100321000303F1
:104BA00016000020170020202300030318000080B7
:104BB000310003031C5900608C5B0060545B006093
:104BC000405D00601A0000402B00100310B450E854
:104BD000003F8B4313431C0040E80043002BF6D1F9
:104BE00010BC70472DE9F04104000D00260036B2DC
:104BF000360AA0460FFA88F818F01F08072E07D3C8
:104C000040F2BF5284498548FEF712FAAFF30080A4
:104C1000834800EB86072A00D2B212FA08F2032179
:104C200011FA08F13800FFF7D1FFBDE8F08110B5A7
:104C300004000321200000B2FFF7D4FF10BD70B4C0
:104C4000049C11F00705260116F010063543056097
:104C5000002A00D0136070BC704730B4029C039DE2
:104C6000002C00D0256030BC704780B500F005F8FE
:104C700000F06DF800F08EF801BD2DE9FE4F40F216
:104C80000240FFF7D4FF67480068029002AA0F2194
:104C90006548FFF7C8FC002001906448009000239D
:104CA000634A07216348FFF7CAFF634C634D002046
:104CB000019000950023220007216148FFF7BFFF04
:104CC000604E614FDFF8848100200190CDF80080B4
:104CD00000233A0007213000FFF7B1FFDFF87091A1
:104CE000DFF870A100200190CDF800A00023002281
:104CF00005214846FFF7A3FF41F2B10BCDF804B000
:104D00004A48009000234A4A07214A48FFF7A5FF76
:104D1000CDF804B000950023220007214848FFF792
:104D20009CFFCDF804B0CDF8008000233A000721A5
:104D30003000FFF792FFCDF804B0CDF800A00023BB
:104D4000002205214846FFF788FFBDE8F78F3EB5F2
:104D500040F20240FFF76BFF3F480068029002AA52
:104D600003213E48FFF75FFC3D4C3E4D0020019083
:104D700000950023002205212000FFF760FF41F28B
:104D8000B100019000950023002205212000FFF7CB
:104D900064FF37BDE0B540F20240FFF748FF002056
:104DA0000190314800900023002201212F48FFF795
:104DB00046FF002001902E48009000232D4A01213B
:104DC0002D48FFF73CFF002001902C480090002365
:104DD0002B4A01212B48FFF732FF002001902A487F
:104DE00000900023294A01212948FFF728FF0020CD
:104DF0000190284800900023274A01212748FFF707
:104E00001EFF00200190264800900023254A012122
:104E10002548FFF714FF07BDD4580060DC5C006034
:104E200068C00F40E05E006000801B40AC821F4005
:104E300010851F40BC801F4018851F40B0821F4056
:104E4000C0801F40C4801F4014851F40B4821F4093
:104E5000F8801F40E8821F40E45E006000001C40B4
:104E6000E0811F40D0831F40DC831F40EC811F4046
:104E7000E0831F40C8841F40F0811F40E4831F402F
:104E8000A8841F40F4811F40E8831F40AC841F406A
:104E9000F8811F40EC831F40B0841F40FC811F40FD
:104EA000F0831F40B4841F4000821F40DFF800F0F1
:104EB00053080020F8B504000D002600B60EDFF8F8
:104EC000D80304F0FF0141180968C4F34C322300F1
:104ED0001B0A13F01F039A4091432200120A12F09A
:104EE0001F0215FA02F2C4F34C3327003F0A17F0F1
:104EF0001F07BB401A40114304F0FF0280180160F5
:104F0000212E09D340F26952DFF89013DFF89003A5
:104F1000FEF78EF8AFF30080202E05D0DFF8840373
:104F20000068F040C007F9D4F1BDF8B504000D00E9
:104F30002600B60EDFF8600304F0FF01411809688F
:104F4000C4F34C3223001B0A13F01F039A40914311
:104F50002200120A12F01F0215FA02F2C4F34C33B7
:104F600027003F0A17F01F07BB401A40114304F007
:104F7000FF0280180160212E07D340F29D52C749DD
:104F8000C748FEF755F8AFF30080202E04D0C5487F
:104F90000068F040C007FAD4F1BD38B50121C2481D
:104FA000FFF788FF0721C148FFF7BFFFC04C200073
:104FB000FDF74AFBBF48206000202076BE4D092047
:104FC000FFF774FFC00828602A682100BB48FDF77E
:104FD000C6FA31BD10B504002000C0B2002805D1CA
:104FE00000220F21B648FFF758FB04E001220F21F1
:104FF000B348FFF752FB10BD01B582B000208DF819
:105000000000B04902A80860684648600120886036
:10501000AA48FDF7FBFC9DF800000EBD80B50020FE
:10502000FFF7D8FF0620FFF7E7FF0120FFF7D2FFC9
:1050300001BD10B500240020FFF7CCFF0520FFF7CD
:10504000DBFFA520FFF7D8FF04002000C0B2C00797
:10505000F7D40120FFF7BEFF10BD10B50400FFF725
:10506000DDFF0020FFF7B6FF2020FFF7C5FF20007F
:10507000000CC0B2FFF7C0FF2000000AC0B2FFF76B
:10508000BBFF2000C0B2FFF7B7FF0120FFF7A2FF70
:10509000FFF7CFFF10BD7FB504000D001600FFF72E
:1050A000BDFF0020FFF796FF0220FFF7A5FF2800B5
:1050B000000CC0B2FFF7A0FF2800000AC0B2FFF743
:1050C0009BFF2800C0B2FFF797FF009400200190DB
:1050D000300080B202905FF4A000039069467748E8
:1050E000FDF794FC0120FFF775FFFFF7A2FF7FBDDE
:1050F0002DE9F84F04000D001600002000210022C9
:1051000000230027A846D8F10009B4461FFA8CFCFA
:105110004FF4807E9CFBFEFAB3461FFA8BFB4FF4E4
:10512000807C9BFBFCFE0CFB1EBBC6465FFA8EFE22
:10513000BEF1000F23D15046C0B2002806D1320084
:1051400092B229002000FFF7A6FF79E05046B0F1A7
:10515000010AC0B200280AD04FF480722900200052
:10516000FFF799FF15F5807514F58074EEE75A4640
:10517000D2B292B229002000FFF78DFF60E05046C6
:10518000C0B2002823D148465946C0B2C9B28842AD
:1051900016D2BBEB090007004A46D2B292B22900F0
:1051A0002000FFF778FF55FA89F54846C0B204445D
:1051B0003A00D2B292B229002000FFF76CFF3FE024
:1051C000320092B229002000FFF765FF38E0484620
:1051D000C0B2361A300080B24FF4807190FBF1F00B
:1051E0008246300080B290FBFCF10CFB110083463C
:1051F0004A46D2B292B229002000FFF74CFF55FA7E
:1052000089F54846C0B204445046B0F1010AC0B224
:1052100000280AD04FF4807229002000FFF73BFFDE
:1052200015F5807514F58074EEE75846C0B2002875
:1052300006D05A46D2B292B229002000FFF72BFFC7
:10524000BDE8F18F7FB504000D0016000020FFF7C8
:10525000C1FE0320FFF7D0FE2800000CC0B2FFF70C
:10526000CBFE2800000AC0B2FFF7C6FE2800C0B27D
:10527000FFF7C2FE002000900194300080B202903F
:105280005FF4A000039069460C48FDF7BFFB0120C6
:10529000FFF7A0FE7FBD000000C00F40DC5600609D
:1052A000BC5B006048C00F401864008018FA0080A2
:1052B000F417002020A107002018002000C039406A
:1052C00000801B401018002001680A680A448260B0
:1052D0004B681344C3600831016070478168C2683D
:1052E000914207D102681168536811440B44C360AE
:1052F000083202604B1C83600878704738B504465A
:105300000D46A068E168884215D12068616888422E
:1053100004D02168207C0A6820B102E000F0CCF8BB
:10532000F7E74A44A26010464A680244E260083146
:1053300090422160E9D0A068401CA06000F8015DA7
:1053400031BD2DE9F84189B000F1080100910A460C
:105350000168490802EBC103002202920392019303
:1053600000F108010268520801EBC2030493002215
:10537000017901F001018DF820104068049906922E
:10538000400801EBC0010591079217E002980399CC
:10539000884213D06846FFF7A1FF064616F00305C2
:1053A00003D16846FFF79AFFC51C34090F2C29D199
:1053B0006846FFF793FF00F10F0423E0009801997E
:1053C000884203D06846FFF77FFFDFE705980AB001
:1053D000BDE8F0810298039988420BD100980168DA
:1053E0000844009902904A6810440390009800F124
:1053F000080100910298401C029010F8011D04A8B9
:10540000FFF77CFF6D1EE5D1002CBFD06846FFF78B
:1054100065FF0746C6F38100032804BF6846FFF70F
:105420005DFF049D0699079E07EB002707E03F1AE2
:10543000083DA5F10800016840680E18314655F88E
:10544000080C081AB842F2D37F42A41C0F449DD026
:10545000B74206D155F8047B55F8040B3E18B74205
:10546000F8D00698079917F8018B88421BD1049849
:105470000599884206D0049801689DF8200006919D
:1054800030B102E000F018F8F5E701EB09000690F2
:10549000049906984A688118049A02F10803884220
:1054A00007910493E3D00698401C0690641E00F810
:1054B000018D3FF46BAFCBE7012000F001B8FEE7B0
:1054C00080B5AFF30080024A11001820ABBEFBE7A5
:1054D0002600020080B53048016851F47001016077
:1054E0002E490A884FF6FE7002400A802C490A882D
:1054F0004FF6FE7002400A802A490888400704D50A
:105500000A884FF6FB7002400A8027490888400746
:1055100004D50A884FF6FB7002400A8023480168D0
:10552000890403D52249234A116006E021494CF23F
:1055300020520A604DF628120A604FF6FF711E4A8B
:105540001160016831F0800151F0200101601B48B9
:105550000168C90703D50168490849000160184876
:105560000168890315D40168890312D4BFF34F8FF2
:10557000BFF36F8F0021134A1160BFF34F8FBFF34A
:105580006F8F016851F400310160BFF34F8FBFF39B
:105590006F8F00F019F801BD88ED00E008800B4026
:1055A00008000D4000800B4000000D4000C00B4083
:1055B00020C528D904C00B4008C00B4010E000E013
:1055C00014ED00E050EF00E07047FEE780B527489B
:1055D00041682848264A12689047BFF34F8F01BDA3
:1055E00080B5224881682448214A12689047BFF359
:1055F0004F8F01BD80B51D48C16820481C4A126804
:105600009047BFF34F8F01BD80B5184801691C4812
:10561000174A12689047BFF34F8F01BD80B51348FA
:1056200041691848124A12689047BFF34F8F01BD75
:1056300080B50E48816914480D4A12689047BFF33F
:105640004F8F01BD80B50948C1691048084A1268EA
:105650009047BFF34F8F01BD80B50448016A0C48E5
:10566000034A12689047BFF34F8F01BD64180020B2
:1056700088180020004018400080184000C01840E2
:1056800000001940004019400080194000C0194036
:1056900000001A40443A5C312E50726F6A656374A0
:1056A000735C31302E4441515C694D5852545C2E2C
:1056B000636F64655C424C5F44415156335F4941BE
:1056C00052392E32302E345C647269766572735CA6
:1056D00066736C5F636C6F636B2E6800443A5C3179
:1056E0002E50726F6A656374735C31302E44415181
:1056F0005C694D5852545C2E636F64655C424C5F2C
:1057000044415156335F494152392E32302E345C78
:10571000647269766572735C66736C5F636C6F63E9
:105720006B2E6800443A5C312E50726F6A65637468
:10573000735C31302E4441515C694D5852545C2E9B
:10574000636F64655C424C5F44415156335F49412D
:1057500052392E32302E345C647269766572735C15
:1057600066736C5F636C6F636B2E6800443A5C31E8
:105770002E50726F6A656374735C31302E444151F0
:105780005C694D5852545C2E636F64655C424C5F9B
:1057900044415156335F494152392E32302E345CE8
:1057A000647269766572735C66736C5F6770696F4B
:1057B0002E630000443A5C312E50726F6A65637448
:1057C000735C31302E4441515C694D5852545C2E0B
:1057D000636F64655C424C5F44415156335F49419D
:1057E00052392E32302E345C647269766572735C85
:1057F00066736C5F636C6F636B2E6800443A5C3158
:105800002E50726F6A656374735C31302E4441515F
:105810005C694D5852545C2E636F64655C424C5F0A
:1058200044415156335F494152392E32302E345C57
:10583000647269766572735C66736C5F6C707370AA
:10584000692E6300443A5C312E50726F6A6563744E
:10585000735C31302E4441515C694D5852545C2E7A
:10586000636F64655C424C5F44415156335F49410C
:1058700052392E32302E345C647269766572735CF4
:1058800066736C5F636C6F636B2E6800443A5C31C7
:105890002E50726F6A656374735C31302E444151CF
:1058A0005C694D5852545C2E636F64655C424C5F7A
:1058B00044415156335F494152392E32302E345CC7
:1058C000647269766572735C66736C5F77646F6728
:1058D0002E630000443A5C312E50726F6A65637427
:1058E000735C31302E4441515C694D5852545C2EEA
:1058F000636F64655C424C5F44415156335F49417C
:1059000052392E32302E345C647269766572735C63
:1059100066736C5F636C6F636B2E6800443A5C3136
:105920002E50726F6A656374735C31302E4441513E
:105930005C694D5852545C2E636F64655C424C5FE9
:1059400044415156335F494152392E32302E345C36
:10595000626F6172645C626F6172642E630000004A
:10596000696E7374616E6365203C202873697A6583
:105970006F6628735F6C7073706942617365732919
:10598000202F2073697A656F662828735F6C7073A7
:1059900070694261736573295B305D2929000000DD
:1059A000696E7374616E6365203C202873697A6543
:1059B0006F6628735F6770696F4261736573292032
:1059C0002F2073697A656F662828735F6770696F27
:1059D0004261736573295B305D292900696E7374B8
:1059E000616E6365203C202873697A656F66287351
:1059F0005F77646F67426173657329202F20736935
:105A00007A656F662828735F77646F674261736594
:105A100073295B305D29290030B4002512E050F86D
:105A2000042BD30744BF4A44521E091F042942F8DD
:105A3000045BFAD213468C0744BF15809B1CC90730
:105A400048BF1D7050F8041B0029E8D130BC7047D6
:105A5000415353455254204552524F522022202543
:105A60007320223A2066696C652022257322204C1F
:105A7000696E652022256422200A000072B605485E
:105A8000054901600A6882F308880448804762B6C5
:105A90000348004708ED00E000200060D554006096
:105AA000715B006010B5074979441831064C7C449D
:105AB000163404E00A68081D114488470146A142D3
:105AC000F8D110BD2C000000540000004EF68851A3
:105AD000CEF20001086840F470000860BFF34F8FF9
:105AE000BFF36F8F4FF00170E1EE100A70470000B6
:105AF00029FFFFFF28010000F4170020000000002C
:105B000043F8FFFF0200000002000000E003000075
:105B10006511000000000020F4170000FEE70000FF
:105B200000F00DF8002801D0FFF7BCFFAFF30080B4
:105B30000020AFF30080FEF770FB00F002F80120B8
:105B4000704700F001B8FEE707463846FFF7B8FC9B
:105B5000FBE7000073697A65203D3D202875696E7A
:105B60007433325F74292831203C3C2069290000BD
:105B70000548014603B4684680F30988AFF3008006
:105B8000FFF7A4FFFFF7CCFFA5EDF5FE21286E6F10
:105B90006E43616368655374617274202520736974
:105BA0007A652900627573795368696674203C3D93
:105BB0002028307832305529000000006275737952
:105BC0005368696674203C3D20283078323055296E
:105BD000000000000000000000801B4000C01B40CF
:105BE00000001C4000401C4000000C4074637250D8
:105BF00072657363616C6556616C756520213D202B
:105C000030000000735F6C7073706948616E646C83
:105C1000655B315D20213D2030000000735F6C70BA
:105C200073706948616E646C655B325D20213D2054
:105C300030000000735F6C7073706948616E646C53
:105C4000655B335D20213D2030000000735F6C7088
:105C500073706948616E646C655B345D20213D2022
:105C6000300000006D6173746572436F6E66696722
:105C700020213D203000000000000000004039409D
:105C80000080394000C0394000003A40696E6465C8
:105C900078203C3D2036554C00000000696E64655C
:105CA00078203C3D2036554C00000000696E64654C
:105CB00078203C3D2036554C000000007472616E27
:105CC0007366657220213D2030000000696E6465B6
:105CD00078203C3D2036554C00000000696E64651C
:105CE00078203C3D2036554C0000000070696E2045
:105CF0003C20333255000000FFFF1A011E001A023B
:105D00000C031E0174784461746120213D20300031
:105D100072784461746120213D203000FFFF000152
:105D200002010401060100003020213D20636F6E56
:105D3000666967000000000000800B4000000D4015
:105D400069203E3D20350000640000000000000096
:105D50000102040810204080FFFF10030A05000024
:105D600080FF5C002D00000000480047E95E0060F5
:105D700000480047E95E006000480047E95E0060B7
:105D800000480047E95E006000480047E95E0060A7
:105D900000480047E95E006000480047E95E006097
:105DA00000480047E95E006000480047E95E006087
:105DB00000480047E95E006000480047E95E006077
:105DC00000480047E95E006000480047E95E006067
:105DD00000480047E95E006000480047E95E006057
:105DE00000480047E95E006000480047E95E006047
:105DF00000480047CD55006000480047E15500606D
:105E000000480047F555006000480047095600600B
:105E1000004800471D5600600048004731560060AA
:105E2000004800474556006000480047595600604A
:105E300000480047E95E006000480047E95E0060F6
:105E400000480047E95E006000480047E95E0060E6
:105E500000480047652F006000480047892F006018
:105E600000480047AD2F006000480047D12F006078
:105E700000480047E95E006000480047E95E0060B6
:105E800000480047E95E006000480047E95E0060A6
:105E900000480047E95E006000480047E95E006096
:105EA00000480047E95E006000480047E95E006086
:105EB00000480047E95E006000480047E95E006076
:105EC00000480047E95E006000480047E95E006066
:105ED00000480047E95E006000480047E95E006056
:105EE0000100000001000000FFF7FEBF1013627503
:105EF00073795368696674203C3D202830783230CD
:105F0000552900011022443A5C312E50726F6A65A7
:105F10006374735C31302E4441515C694D58525466
:105F20005C2E636F64655C424C5F13502856335F90
:105F3000494152392E32302E345C64726976657272
:105F4000735C66736C5F636C6F636B2E6800EB044D
:105F5000180A06320426000190038104042400017B
:105F6000B00106040001A002200418081212321029
:105F700083042212D2C7302202208220142203106E
:105F80009162D29F70A301042ED00100003550C34E
:105F9000F50610D20540120B60C3083014A101F4BD
:105FA0000C37216279706173735874616C4F73633D
:105FB000482415630040787D0180F0FA0200E1F585
:105FC0000540597307696E646578B4F4013B365532
:105FD0004CB0F0063373726320213D20305410051D
:105FE000666C6578737069BE60140000696E7374C6
:105FF000616E6365203C202873697A656F6628733B
:10600000215007426173657329202F2019E11A2856
:10601000025B305D299551F4104120363455000063
:10602000802A40DFF800F031300060F8B504000D40
:10603000002600B60EDFF8280304F0FF014118091E
:1060400068C4F34C3223001B0A13F01F039A4091DB
:10605000432200120A12F01F0215FA02F21C100D60
:106060003327003F0A17F01F07BB401A4011433681
:1060700080270280180160212E07D340F26952B8B0
:1060800049B948FFF7CEFFAFF30080202E04D0B609
:10609000480068F040C007FAD4F1BD70F333AE4851
:1060A0006E10039D529D499D6E72976E929B6E205D
:1060B00012016851F0010101600168C907FCD47048
:1060C0004738B584B0801804009500208DF8BF11C2
:1060D0000610010500010610010700020610110656
:1060E000006946200001F071F905B030BD78B58532
:1060F000B005242301902832082232092E10010B0A
:10610000000C06100B0A0068460390012004900161
:10611000A928361356F95210122C01D020000CE099
:106120000098C00702D50120060001E00006300BF0
:106130003000C0B20028EAD1200006B0705A600CCE
:1061400006004020009000213000FFF7B3FF3A83A3
:1061500022E070920370D20970123070131EF99E03
:1061600020052D01D0280007E04612A7462108434C
:1061700084FF6612F8EEF0040906000F000097EEA7
:10618000214863FAF87EF3031DE02C92032CC3E44C
:10619000F874526D74124A74400605B0F0BD2DE9D2
:1061A000F84376300390469946391C7244DE7221DA
:1061B000609203603204604006CDF80880CDF80C90
:1061C0009068D2B068523968321668140BBDE8F096
:1061D0008380B521480088ADF80016180D00F01C2A
:1061E000FA1821002000F0A3FB03211C10100393D8
:1061F000FE02211B081405C7FE01BD18B58DF6204F
:1062000002FFF7E6FF2A233AFE7632307C3231066F
:10621000322F063632FC200600F05BFD00220E49CC
:106220000A2006CBFE3C230C4A00210C127778147E
:106230000BFFF7D7FE0EB010BD00C00F4018221D97
:1062400057031320480C100BF01700201C7D008012
:106250001CF70080CC0C1260181033DFF80C04001F
:1062600068C00602D5DFF8080402E0DFF8F0060097
:106270006870474FF4004070470901090D08180085
:1062800068000C10F0010070470A001201120D1096
:1062900012400411F01F01C840163E382C031E287E
:1062A0007905110712194E180AF38130002802D11E
:1062B000FFF7D0FF0028100B32BD10B5DFF8AC435C
:1062C000206880012268100FA803006810F4405075
:1062D000002806D0B0F5805F0806120006120C7E7A
:1062E000100B900300F0C7F908E0FFF7B2FF0510AC
:1062F0002004180600F0BFF946100B2168C1F3C254
:1063000061491CB0FBF1F02A1A42604620022000CD
:10631000280946232F0B46132F0C061003402F0D80
:10632000D018221407DC0500F0A1F914E002701067
:106330000119FB1044100500F015FB0CE00D0810CE
:106340000595F9DFF8F41609C843070154216410D4
:106350000110BD80AA13A8055A11DA11C41004D087
:10636000012805D0074C1005F80200F07BF9030A5C
:1063700023E0022A1202D41204512D2E0310060823
:10638000D0C022DFF8BC15042C0305FFF7A6FDE200
:10639000031008DFF8B4055FF080410160FA100EC9
:1063A000120968C903FAD55FF48031DFF8A025111E
:1063B0001410177C2612681204FAD5016010BD0172
:1063C00000C9B2002904D11021DFF8881E2303E0A0
:1063D0000A6C085C2611607047DFF86C021E04101E
:1063E00006704780B5FFF759FFFC11524002C1F318
:1063F0008221BA218C1C0DDFF84C42206840060A2D
:10640000D52068000603D203300300F0D7FA05FC5C
:1064100014019BFA0150273DFF424302413421EA17
:106420001928114C32144CB2014C23E4454C200481
:1064300002D5FFF7EFFE3C12E93C540111F03F2A70
:106440009210FC104327D0022828D024D304282BF4
:10645000D027D306282ED02AD3082832D02DD30A0D
:106460002838D033D30C283DD038D30E2854D04E02
:10647000D310285AD055D312285FD05AD314286588
:10648000D05FD316286CD066D3183010072ED31ADD
:106490002837D032D3696E10018CFF670610019542
:1064A000FF64061001ACFF61061001B5FF5E06280F
:1064B00001A9FE5B1837FE58C22801B4F85406340F
:1064C000040100F0AFF84FDC20025FFA4BE0F83037
:1064D000015BFA47F8100357FA43E0030810015331
:1064E000FA3F38100112FF3C0610030FFF800838F6
:1064F0000810030BFFC0083408200207FF0621D450
:10650000122E4C1005F40400F089F8290A1AA0860E
:10651000300184F824563001FCF920563001F8F996
:106520001C563001F4F918561AF05A1001DFF8C45D
:106530003410016FF80F0A12BC0A10016AF80A0A37
:1065400012B80A2B65F8BE1DCF034801F060F85A57
:106550001908181024116831F4404103799B031382
:10656000F4404319435112201C11601368DFF89462
:10657000140B40017811F07F010B4353F4005313C7
:106580006011680029FCD5322124290A40086814CA
:106590000A6832F4404243784010061A4352F480AD
:1065A000320A60162009F0020203785B0013F00241
:1065B0000316234152162002002AFCD53221242F33
:1065C0007047EC0310013C14080A90054FF480500A
:1065D000DFF8340C32480C2D10082C0770820D4067
:1065E00000366E01143C0411041C110D001000F85B
:1065F000B52DED028B0400DFF8E87321003860044C
:106600004008FBFD002801D1002038E1104002FEC7
:10661000FD06000A22E61A1809D030002BE12000FE
:106620000D381ED0F4500211401A4808400200F004
:1066300013810A221812100201401A460832401A29
:10664000439E8012140100F0F3A31C0500F0FB80B0
:1066500007E13888031C107F0046437608370001A5
:10666000E100EE106AB8EE400B1403100A0390ED3F
:10667000001AB8EE411B20EE01107260101280105B
:106680001C05B0EE408BDFF84420042DDC0610051D
:106690001620464301E014062C0BBCEEC80B10EE8E
:1066A000100A86193700DA5C0411221001800701F4
:1066B0002232002010013700CF1630011C1308765B
:1066C00083050070D20C70F2000070615C1004054C
:1066D000FB06063700424C01F4C010E0042C010018
:1066E0002F05A0045C191F04D004E0BF080AE07F56
:1066F0000808E007E040F20C42624982A0FFF78EF2
:10670000FB30041DE8031924200A02014000290D72
:10671000D0B1F5004F080618010F07D01E80030204
:10672000814204D13E10054FF484625349723E32D7
:106730006F3E1273B8F3017812B8C36802B8F33130
:106740005C02B810034D423449547A5232B82FFCDF
:10675000012E051C02404000287C051002F1804FEC
:10676000070613004F42A001F1404FB4100540F25C
:1067700061422649453A32153A1219B432D03C12D8
:1067800003B42C07DFF8C80150F825700E5403132A
:10679000710B06E790019E1D48031C08273800BDB9
:1067A000EC028BF2BD0D66071A0CA0A03070B4038A
:1067B00000DBB2DFF898512A68BF261C00E4B2E47F
:1067C0000016FA04F432EA040480261A00D2B2D287
:1067D00000964026432E600E00F6B216F03F0614D7
:1067E0002B70BCF61F24180C071002010020500467
:1067F000100358810D4054041E7408032DE6045CF8
:1068000007DFF84001FFF77EFE01F0041E05F004EB
:10681000280713D00AD3032818D01F2E31C22C0406
:106820003F00B1FBF0F07406120C102002C0F3051B
:10683000201012101033FC001022401012081042D9
:10684000EC102260102D18041C0212214843AA07E4
:1068500011CE430000701ED44603B246703212704F
:106860002C0116D01C5204820070800215E02848CA
:106870006E80020EE024486CF0020307E021486AB3
:106880001610341250E01278E03E1CE0031DA803FD
:10689000111F12150410010D0070041C02A000103D
:1068A0008004041104100380EFFFFF30081250042D
:1068B0001260041220042270181104329024100176
:1068C0008000704C12A00C12B00412C00412E0043C
:1068D00012A8BD2DCC0C12001C12F01025AC2D48B6
:1068E00004141310B450E8003F8B4313431C0040C2
:1068F000E80043002BF6D110824C022DE9F0416EE6
:106900000B1C0F36B2360AA0460FFA88F818F01F93
:1069100008072E093A0B1004BF52DFF8CC180448C0
:106920000308FFF7F8F9741405C40800EB86072A7A
:10693000CA2C0812FA08F2032111FA08F17E041F8A
:10694000CEFF72092681482E030E09FC0400B2FF17
:10695000F7D1FF105E0B100E42690A434261704787
:10696000D0F8E010890704D5083E00F00715263C52
:1069700003C0B2704770D0081E160C0A1C0108D163
:1069800074DA07125C7E125C7E32B97E11581C0FDD
:1069900021B14203D20570401C491CF9E770BD3893
:1069A000B57403101324002C07D1DFF8380850F811
:1069B0002400A84201D0641CF5E74213D08B421298
:1069C00018421220425298423E32800A2D7E0A140A
:1069D000035FF0010830A81C020119484670081C2A
:1069E000062802D9C01E03D00B72063C0480461054
:1069F000E038798408110C2D9E0B1003804607E0C7
:106A0000AC4E1C01CC1795460332724C2B404626E7
:106A10001F02D0C8051C02701AE03842041815BCC9
:106A200017884201D3792013E0B97C4FF47A704182
:106A3000430D004B20B506120408100F00FB04F0B4
:106A4000A84200D2641C600210F4FC4050381003CD
:106A5000BDE8F28370C4201A0C00002640F60A003C
:106A60000440002C29D0200503D541F659300600FA
:106A700013E020070C125A0C30010DE0A00C125B41
:106A80000C100107E0E58E10013C17718E322B8E41
:106A90001E21060A1407FFF74FFFD5F8BC0050521D
:106AA00012C5085001D5F8B80C1AB8085E705A0D16
:106AB00015ED2E27AA0A1E6182081003101731F95E
:106AC000100C1C0523FF206830F0028D03211A10E2
:106AD0001024FF2978090111F03001E87851EA000B
:106AE00031A87A06100141287C061361681210074C
:106AF0008031287951EAC021A80C10024031A87BCE
:106B00000C1311E8061411801151F00201216028C4
:106B1000896A8A52EA00426260A316200FB0060317
:106B200040287D53EA0063687953EAC043A8061001
:106B3000033395F82E00081C0A23A360D4F80CC078
:106B40003CF0780C95660B1C035CEA801C957A0B74
:106B500010015CEA400812310812000812320810D5
:106B600001C00CC42814035FF0000E7078300204DA
:106B70002834D2087019EB8000016ADFF850060152
:106B80004006207246D2B242432A44927E51EAC263
:106B9000710E60077D120612F0407211431240061A
:106BA000D27D120412F4702212600E00FB02F02853
:106BB00044008BC0F3C70001438C46582409C0F839
:106BC00020C01EF1010EC6E7D4401002F03C00C404
:106BD00008210C400C297BC908491E890011F03C92
:106BE0000108431652BC2232BC0CC3E97A222EBCE7
:106BF000240E1D6C0A1C05042907D20021023E0345
:106C00009C0904EB82021166401CF3E7F184042F17
:106C100034224C0C1406FFF77BFE002020708F11ED
:106C2000041003A0700120E008132071101104105B
:106C30000DA0714FF6FF702081FF21A1720822E2A2
:106C400004100322730022A2041009E2732174606D
:106C500082202020751848100114F1164A4356FE70
:106C60007A3003022915D2067A60064A432244018B
:106C70002393760C20020F23D3750C241001FB0202
:106C8000F1214400220A83401CE5E7022108006844
:106C9000100310DA06200A1E524236210C25321B40
:106CA0002044F81408720283491CEAE7002084CECD
:106CB0002106322F063230063231063C01320010F6
:106CC00072034DD80315C01208042005093700FFD0
:106CD000B27F08EA1EFAB6082002FAD029000C1E7C
:106CE000327C056738007E6BC0109421142DF608A5
:106CF0001C02032201E0B408301032C8070CD5D4BE
:106D0000F8E80010409042FAD164231820B00A023B
:106D1000D000BF5B1EF8E7BDE8F18372916E32C30D
:106D20006E2401A868318C1405EB81010866E8899E
:106D3000CE48030311F40041E4180B400110F4782D
:106D4000700143687C10F01F101C01E87CC0AE038A
:106D50001804F0400143287DE2532130A06301670D
:106D60000A1C01D0F8801805200DD00310EA08088D
:106D7000687E000710F0E040500C1D0A091001C0A9
:106D800013115612510E2FA87DA6071001687D0021
:106D90004E237060203007A87D401E400310F46031
:106DA0002E400A287E00280BD0E87D10F00F00103E
:106DB000111E12014C310E616C12C06C16328245EC
:106DC000301E53B6033650222F287F3A081805D4B8
:106DD000F89400400840862002940005E00E2DFE45
:106DE00003210E4542230DD1141E308E042114219F
:106DF0000C3003297F50EA810E320C30B00130F0A4
:106E0000081C32C10EAD1C0436224245644D3C06BE
:106E10001C0A16001F00402D09D34FF40B72C20D3F
:106E20001E1226052C0302FEF7E0FE960425F02133
:106E3000363207361DA00B1C0B22A2610220E06136
:106E400004EB850010F5F5062C1521B94205D23367
:106E5000680360361D001D491CF7E7A2610122E2AC
:106E6000614C0611601C0647070088461500D74094
:106E7000031008C0F3830919F101090024541C050B
:106E80000A002D3CD0786920113C0206FBD531FE6A
:106E90000A6F5CFD42101C1130E0B5EBC90F14D332
:106EA00000208246BAEB490F0AD2D80210201A07F6
:106EB000EB8A01C1F8800118F104081AF1010AF106
:106EC000E77FF0070000FB095512E02AF00306E80F
:106ED0001CBAEB902C1AF0E2100C0500786950F007
:106EE00040007861C0E72000A01A8764624FA0D2FA
:106EF000B8A0110420030B002D5BD08A230DD3AA68
:106F00004002800619D4AA3207AA1EF45C061C05AA
:106F100083460FE0D7F8F03C101C01FF00C0BA0612
:106F2000200208D279692223F6FC2232F1223E584F
:106F300066064336D11A32E91AE32FD1E211B219AB
:106F40008810010001C8BEF10FE2F1032C81E212AA
:106F500020E232A1E28FF28F30062B28797E1229AF
:106F60000618088101D1F8801051F000418C1310EF
:106F700060323C071E0060612868C4F8A0FA04492A
:106F8000722D060552B80C1C03B8006879024E0930
:106F90001C01687903A4031C01687901A0101C0876
:106FA000E86880B20600A87900040E0318072006DE
:106FB00043E879401E0006EE1F60062E051EA4144D
:106FC0000652B03E83B00038280406D1EA68A968AA
:106FD000503004F1FE070008E05871143C0137FFFF
:106FE0000716032BD1FB6C1E68C007200204D16179
:106FF000691214014EFC077A1EF268051EC82009AA
:1070000012B8041E6880091A1CD312100412B804A6
:107010001268042DFC151EF29C11100AFF77F70070
:1070200000FFF07C1010008009130FAC1C1405F059
:107030005AF05A000E274F11012240064C0202005E
:107040000303A6166E01AD160005A4781F00000A02
:017050000639
:0400000560005A7DC0
:00000001FF
